{
  "_format": "hh-sol-artifact-1",
  "contractName": "TodoContract",
  "sourceName": "contracts/TodoContract.sol",
  "abi": [
    {
      "inputs": [
        {
          "internalType": "string",
          "name": "name",
          "type": "string"
        }
      ],
      "name": "addTodo",
      "outputs": [],
      "stateMutability": "nonpayable",
      "type": "function"
    },
    {
      "inputs": [],
      "name": "getTodos",
      "outputs": [
        {
          "components": [
            {
              "internalType": "string",
              "name": "name",
              "type": "string"
            },
            {
              "internalType": "uint256",
              "name": "id",
              "type": "uint256"
            }
          ],
          "internalType": "struct TodoContract.Todo[]",
          "name": "",
          "type": "tuple[]"
        }
      ],
      "stateMutability": "view",
      "type": "function"
    },
    {
      "inputs": [
        {
          "internalType": "uint256",
          "name": "",
          "type": "uint256"
        }
      ],
      "name": "todos",
      "outputs": [
        {
          "internalType": "string",
          "name": "name",
          "type": "string"
        },
        {
          "internalType": "uint256",
          "name": "id",
          "type": "uint256"
        }
      ],
      "stateMutability": "view",
      "type": "function"
    }
  ],
  "bytecode": "0x608060405234801561001057600080fd5b50610a24806100206000396000f3fe608060405234801561001057600080fd5b50600436106100415760003560e01c806395ffebf514610046578063bc8bc2b414610062578063c33926cb14610093575b600080fd5b610060600480360381019061005b919061042c565b6100b1565b005b61007c600480360381019061007791906104ab565b61011b565b60405161008a929190610566565b60405180910390f35b61009b6101d7565b6040516100a891906106ee565b60405180910390f35b600060405180604001604052808381526020016000805490508152509080600181540180825580915050600190039060005260206000209060020201600090919091909150600082015181600001908161010b919061091c565b5060208201518160010155505050565b6000818154811061012b57600080fd5b906000526020600020906002020160009150905080600001805461014e9061073f565b80601f016020809104026020016040519081016040528092919081815260200182805461017a9061073f565b80156101c75780601f1061019c576101008083540402835291602001916101c7565b820191906000526020600020905b8154815290600101906020018083116101aa57829003601f168201915b5050505050908060010154905082565b60606000805480602002602001604051908101604052809291908181526020016000905b828210156102c9578382906000526020600020906002020160405180604001604052908160008201805461022e9061073f565b80601f016020809104026020016040519081016040528092919081815260200182805461025a9061073f565b80156102a75780601f1061027c576101008083540402835291602001916102a7565b820191906000526020600020905b81548152906001019060200180831161028a57829003601f168201915b50505050508152602001600182015481525050815260200190600101906101fb565b50505050905090565b6000604051905090565b600080fd5b600080fd5b600080fd5b600080fd5b6000601f19601f8301169050919050565b7f4e487b7100000000000000000000000000000000000000000000000000000000600052604160045260246000fd5b610339826102f0565b810181811067ffffffffffffffff8211171561035857610357610301565b5b80604052505050565b600061036b6102d2565b90506103778282610330565b919050565b600067ffffffffffffffff82111561039757610396610301565b5b6103a0826102f0565b9050602081019050919050565b82818337600083830152505050565b60006103cf6103ca8461037c565b610361565b9050828152602081018484840111156103eb576103ea6102eb565b5b6103f68482856103ad565b509392505050565b600082601f830112610413576104126102e6565b5b81356104238482602086016103bc565b91505092915050565b600060208284031215610442576104416102dc565b5b600082013567ffffffffffffffff8111156104605761045f6102e1565b5b61046c848285016103fe565b91505092915050565b6000819050919050565b61048881610475565b811461049357600080fd5b50565b6000813590506104a58161047f565b92915050565b6000602082840312156104c1576104c06102dc565b5b60006104cf84828501610496565b91505092915050565b600081519050919050565b600082825260208201905092915050565b60005b838110156105125780820151818401526020810190506104f7565b60008484015250505050565b6000610529826104d8565b61053381856104e3565b93506105438185602086016104f4565b61054c816102f0565b840191505092915050565b61056081610475565b82525050565b60006040820190508181036000830152610580818561051e565b905061058f6020830184610557565b9392505050565b600081519050919050565b600082825260208201905092915050565b6000819050602082019050919050565b600082825260208201905092915050565b60006105de826104d8565b6105e881856105c2565b93506105f88185602086016104f4565b610601816102f0565b840191505092915050565b61061581610475565b82525050565b6000604083016000830151848203600086015261063882826105d3565b915050602083015161064d602086018261060c565b508091505092915050565b6000610664838361061b565b905092915050565b6000602082019050919050565b600061068482610596565b61068e81856105a1565b9350836020820285016106a0856105b2565b8060005b858110156106dc57848403895281516106bd8582610658565b94506106c88361066c565b925060208a019950506001810190506106a4565b50829750879550505050505092915050565b600060208201905081810360008301526107088184610679565b905092915050565b7f4e487b7100000000000000000000000000000000000000000000000000000000600052602260045260246000fd5b6000600282049050600182168061075757607f821691505b60208210810361076a57610769610710565b5b50919050565b60008190508160005260206000209050919050565b60006020601f8301049050919050565b600082821b905092915050565b6000600883026107d27fffffffffffffffffffffffffffffffffffffffffffffffffffffffffffffffff82610795565b6107dc8683610795565b95508019841693508086168417925050509392505050565b6000819050919050565b600061081961081461080f84610475565b6107f4565b610475565b9050919050565b6000819050919050565b610833836107fe565b61084761083f82610820565b8484546107a2565b825550505050565b600090565b61085c61084f565b61086781848461082a565b505050565b5b8181101561088b57610880600082610854565b60018101905061086d565b5050565b601f8211156108d0576108a181610770565b6108aa84610785565b810160208510156108b9578190505b6108cd6108c585610785565b83018261086c565b50505b505050565b600082821c905092915050565b60006108f3600019846008026108d5565b1980831691505092915050565b600061090c83836108e2565b9150826002028217905092915050565b610925826104d8565b67ffffffffffffffff81111561093e5761093d610301565b5b610948825461073f565b61095382828561088f565b600060209050601f8311600181146109865760008415610974578287015190505b61097e8582610900565b8655506109e6565b601f19841661099486610770565b60005b828110156109bc57848901518255600182019150602085019450602081019050610997565b868310156109d957848901516109d5601f8916826108e2565b8355505b6001600288020188555050505b50505050505056fea264697066735822122040632324fedfd3719eae856810c119ab29c75f1f35948894b764f6407465835964736f6c63430008180033",
  "linkReferences": {},
  "deployedLinkReferences": {}
}